:020000040800F2
:10000000202F02207902000885710108955E010801
:10001000817101083D4901081186010800000000B6
:10002000000000000000000000000000C101000806
:10003000B14C01080000000015020008AD80010865
:10004000930200089302000893020008930200083C
:10005000930200089302000893020008930200082C
:10006000930200089302000893020008930200081C
:10007000930200089302000893020008930200080C
:1000800093020008930200089302000893020008FC
:10009000930200089302000893020008694D0108CA
:1000A00093020008930200089302000893020008DC
:1000B00093020008930200089302000893020008CC
:1000C00093020008930200089302000893020008BC
:1000D00093020008930200089302000893020008AC
:1000E000930200089302000893020008930200089C
:1000F000930200089302000893020008930200088C
:100100009302000861790108930200089302000835
:10011000930200089302000893020008930200086B
:10012000930200089302000893020008DD4B0108C7
:10013000930200089302000893020008930200084B
:10014000930200089302000893020008930200083B
:10015000930200089302000893020008930200082B
:10016000930200089302000893020008930200081B
:10017000930200089302000893020008930200080B
:1001800093020008930200089302000893020008FB
:1001900093020008930200089302000893020008EB
:1001A000FD6B010893020008894B0108DFF80CD0B1
:1001B00000F0AAFB00480047C5A50108202F022037
:1001C0002A4B19680868B0E8F04F80F30988BFF33C
:1001D0006F8F4FF0000080F311887047000000001F
:1001E00006480068006880F3088862B661B6BFF30D
:1001F0004F8FBFF36F8F00DF00BF00BF08ED00E03F
:10020000DFF80C00016841F470010160704700BF25
:1002100088ED00E0EFF30980BFF36F8F134B1A688E
:100220001EF0100F08BF20ED108A20E9F04F10607B
:1002300008B44FF0500080F31188BFF34F8FBFF325
:100240006F8F1BF093FA4FF0000080F3118808BC09
:1002500019680868B0E8F04F1EF0100F08BFB0EC46
:10026000108A80F30988BFF36F8F704798010020D0
:10027000EFF30580704700000648804706480047B6
:10028000FEE7FEE7FEE7FEE7FEE7FEE7FEE7FEE746
:10029000FEE7FEE7BD800108AD0100082DE9F05F33
:1002A0000546002092469B468846064681464024E5
:1002B0001BE0284641464746224600F03FFA534697
:1002C0005A46C01A914110D311461846224600F0F2
:1002D00026FA2D1A67EB01084F462246012000211D
:1002E00000F01DFA17EB00094E41201EA4F1010495
:1002F000DFDC484631462A464346BDE8F09F10B54C
:10030000441A0346944209D28418114403E011F8B8
:10031000013D04F8013D521EF9D210BD40EA01042E
:10032000A40703D009E010C9121F10C3042AFAD28F
:1003300003E011F8014B03F8014B521EF9D210BD36
:10034000D2B201E000F8012B491EFBD27047002217
:10035000F6E710B513460A4604461946FFF7F0FFC4
:10036000204610BD421C10F8011B0029FBD1801A49
:100370007047034611F8012B00F8012B002AF9D130
:10038000184670472DE9FE4F804681EA0300C00FF2
:100390000C46009021F0004123F00045B8EB02002C
:1003A000A94105D24046214690461C460B460246CE
:1003B00023F00040104347D0270DC7F30A00C3F3D2
:1003C0000A510290401A019040286BDAC3F31300DF
:1003D00040F4801B0098924620B10023D2EB030A20
:1003E00063EB0B0B01985946C0F14002504600F0F8
:1003F00096F906460D4650465946019A00F0AEF968
:1004000010EB08006141002487EA115284EAE77387
:100410001A4340D0009A62B3019A012A4FEA075268
:1004200015DC001B61EB02014FF0004202EA0752AB
:10043000CDE90042001C41F5801132462B4600F008
:10044000E5F903B0BDE8F08F40462146F9E7001B0F
:1004500061EB0201001C41F5801300185B4120187C
:10046000A2F5001747EB030140EAD570B6196D41BC
:1004700011E06D084FEA360645EAC0754FEA0752AB
:10048000001B61EB0201001C41F5801149084FEA95
:1004900030000019514132462B4603B0BDE8F04F01
:1004A00000F0A5B90098012240000023D0EB020221
:1004B00063EBE073009821464FEAE074B8EB00006C
:1004C00061EB0401E9E783F000435BE781F0004161
:1004D00058E72DE9FE4F81EA030404F0004421F0BF
:1004E000004100944FF0000B23F0004350EA010458
:1004F0005ED052EA03045BD0C3F30A54C1F30A5539
:100500002C44A4F2F3340194A0FB0254C1F3130170
:1005100041F48011C3F3130343F4801301FB02443D
:1005200000FB034E840A970A44EA815447EA835742
:10053000A4FB076802958D0A05FB07854FEA932CFB
:1005400004FB0C542705029D4FEA065847EA16376C
:10055000B5EB08056EEB070C870E920E47EA811784
:1005600042EA8312A7FB0201B6EB0B0164EB000425
:100570002B0D43EA0C335E1844EB1C50DA4651460F
:10058000E7FB0201C5F313044FEA0B3343EA1453AC
:100590004FEA0432019C43EA0603A4F10C040294DE
:1005A000009CCDE900B400F031F903B0BDE8F08F54
:1005B00000200146F9E72DE9F04D81EA030404F03B
:1005C000004B21F0004514464FF0000A23F0004193
:1005D00050EA050220D054EA01021DD0C5F30A57A3
:1005E0000246C5F31303C1F31300C1F30A5640F4E6
:1005F000801543F48013A7EB0608101BD64608F2BB
:10060000FD3873EB050002D308F1010801E09218F0
:100610005B41B8F1000F03DA00200146BDE8F08D20
:1006200000204FF48011064684460EE0171B73EB42
:10063000050705D3121B63EB050306434CEA010CC7
:1006400049084FEA300092185B4150EA0107EDD1AA
:1006500052EA030012D082EA040083EA050108434B
:1006600005D0101BAB4106D20122002306E0002278
:100670004FF0004302E06FF0010253101AEB060046
:100680004CEB085110EB0A0041EB0B01BDE8F04DBB
:1006900000F0ADB800F0004230F000400AD0C10DCB
:1006A00001F56071C0F3160042EA0151C20840072B
:1006B0001143704700200146704701F0004330B4F9
:1006C00021F0004150EA010206D00A0DA2F5607245
:1006D000C1F31301002A02DC30BC00207047440F34
:1006E00044EAC104C100E01830BC00EBC25000F085
:1006F00047B830B50B46014600202022012409E00E
:1007000021FA02F59D4205D303FA02F5491B04FACA
:1007100002F52844151EA2F10102F1DC30BD202AA9
:1007200004DB203A00FA02F1002070479140C2F148
:10073000200320FA03F3194390407047202A04DB7A
:10074000203A21FA02F00021704721FA02F3D0404A
:10075000C2F120029140084319467047202A06DB67
:10076000CB17203A41FA02F043EAE07306E041FA7F
:1007700002F3D040C2F1200291400843194670476D
:100780000029A8BF7047401C490008BF20F00100A5
:10079000704710B4B0FA80FC00FA0CF050EA010483
:1007A00004BF10BC704749B1CCF1200421FA04F415
:1007B00011FA0CF118BF012121430843A3EB0C01EE
:1007C000CB1D4FEA00614FEA102042BF002010BC51
:1007D000704700EBC35010440029A4BF10BC704701
:1007E000401C490008BF20F0010010BC704710B544
:1007F000141E73F1000408DA401C41F10001921844
:100800005B411A4301D120F0010010BD2DE9F04DEC
:1008100092469B4611B1B1FA81F202E0B0FA80F241
:1008200020329046FFF77BFF04460F4640EA0A005D
:1008300041EA0B0153465A46084313D0114653EA86
:10084000010019D0C8F140025046FFF777FF054676
:100850000E46504659464246FFF761FF084305D011
:10086000012004E020463946BDE8F08D0020054314
:1008700046EAE0762C4337430A986305E40AA0EB86
:1008800008000022FD0A44EA47540A3002D500203D
:100890000146E9E7010510196941DDE9084500193C
:1008A0006941BDE8F04DA2E7C1F30A52C1F313015B
:1008B00040F2FF3341F480119A4202DA00200146EF
:1008C000704740F233439A42A2F2334202DC524272
:1008D000FFF734BFFFF723BF30B5041E71F10004EA
:1008E00004DB4FF00044404264EB0101141E73F13D
:1008F000000405DB1C464FF00043524263EB040347
:10090000994208BF904230BD064C074D06E0E068B2
:1009100040F0010394E8070098471034AC42F6D346
:10092000FFF748FC242D0A08442D0A0870B58C18DE
:1009300010F8015B15F0070301D110F8013B2A11F3
:1009400006D110F8012B03E010F8016B01F8016BE0
:100950005B1EF9D12B0705D40023521E0DD401F8DC
:10096000013BFAE710F8013BCB1A921C03E013F8A5
:10097000015B01F8015B521EF9D5A142D8D30020DA
:1009800070BD000070B5456882B004460146284637
:1009900009F00AF868B123680F2B59D00BDD282B1A
:1009A00045D0B3F5107F3CD0112B49D0204609F03B
:1009B000ADFA02B070BD0B2B20D00E2BF6D1E36840
:1009C0001A6859680D2A53D0202A31D100292846A7
:1009D0004FF480717DDD09F0D3F8284602F04AF823
:1009E00002AB846A43F8040D184602F015F9A20719
:1009F000DFD5284601210AF05DFEDAE7284602F03D
:100A000039F802AD03466830019301F015FE55F840
:100A1000040D03216C3001F035FE284602F0FCF88D
:100A2000C4E7324B214628461B689847C1E7E36874
:100A3000002BBBD128464FF4807108F099FFB5E731
:100A40002B4B1B68002BB4D0214628469847B0E7B3
:100A5000284602F00FF802AB43F8040D426E14680A
:100A6000184602F0D9F8002CA3D02846A047A0E7EA
:100A70000029DDDD4FF48071284609F081F8284611
:100A800001F0F8FF02AC866A44F8040D204602F03B
:100A9000C3F8B10703D5012128460AF00BFE4FF435
:100AA0008071284608F064FF284601F0E3FF034602
:100AB00020461E8E9C6A019302F0AEF8304605F087
:100AC0009FFAA3077FF575AF284602210AF0F2FDD1
:100AD0006FE708F04DFF284601F0CCFF02AB846AB7
:100AE00043F8040D068E1846E6E700BF9C0200207E
:100AF000780C02202DE9F04FB0F90A60B0F90C70C3
:100B00008569B0F90E80B0F91090B0F908A087B0EF
:100B10008B4616441F4404464C3503F0FFF8DFF8BB
:100B2000CCC0CDF800B04FF0000E424639463046FA
:100B300003954B46CDF808C0CDF804E009F0E8F87D
:100B4000804628B905F074FC404607B0BDE8F08F38
:100B500001F090FF244F0590514610223E1D09F0F0
:100B60002BF80DF118090FCE59F804ED0EF13405EC
:100B70000FC50FCE0FC596E80F0085E80F007B6B01
:100B8000CEF86430484602F047F87B6B40465B681D
:100B9000984705F04DFC656803F0C0F8404601F049
:100BA00069FF846E049004A8059402F035F8294684
:100BB000484607F02DF80028C4D0059B9C4209D078
:100BC000404601F057FF059A8266034604A8049345
:100BD00002F022F840460AF099F905F029FC404657
:100BE00007B0BDE8F08F00BF9C0200208509000817
:100BF000F0B5954A8168436852F8216089B004468F
:100C0000122B3FD8DFE803F0AE3E3E3E3E0A963E52
:100C10003E3E3E3E3E3E3E3E3E3E4100F569002D9C
:100C200040F0B280371F57F8040F05F047F904F180
:100C300010000FC85B1B521B29442844013502F0E9
:100C4000D3FD022DEFD132696169E3690192A26996
:100C50002069F76800970B445B100231521B28444F
:100C600002F098FCE3696169B2690192A2692069A6
:100C700074690094194449100131023B521B284405
:100C800002F088FC002009B0F0BD006801F0F2FE1F
:100C9000856E0490002D00F0CF80A368B0F95C70E1
:100CA000002B00F0C780032B14BF0023022300EBAE
:100CB0008303406D1C6C05F019F9204605F0FEF821
:100CC00008AC06A802F01CFFB6F81CE0BDF818102E
:100CD000BDF81C20BDF81A0054F8106DBDF81E3088
:100CE0007144CEEB02020230023BADF81810ADF8B1
:100CF0001C20B6F95E10B6F96020ADF81A0006A8FF
:100D0000ADF81E3004F006FC204601F085FF0220FD
:100D100005F05EF9284601F0ADFE08AC06A944F8DE
:100D20000C0D3A4602F0B8FA204601F075FF00209B
:100D300009B0F0BD006801F09DFE049020680BF042
:100D40009FFFA8B9049B5D6F05B9DD6E04A801F093
:100D500063FF0023284621681A4602F041FA00206A
:100D600009B0F0BD00680AF09DFF002009B0F0BD99
:100D7000A368002B64D1049A136F002B14BF6C235B
:100D8000682313445D68E1E7B368039373680293D3
:100D9000374600F1140157F804090EC90190206983
:100DA000009506F08DFA002557F8040F05F086F837
:100DB000F369A26921696069D21A1944284402F0D2
:100DC000BDFCF369A2692169E069D21A1944401B8C
:100DD00002F0B4FCF369E26961692069D21A19442E
:100DE000284402F049FDF369E2696169A069D21AF9
:100DF000401B1944013502F03FFD022DD4D1B068EB
:100E000005F05CF8F16920696569E36942185B1ACD
:100E1000013A2944023002F087FDF169A26965694F
:100E2000E369501A5B1A01302944023A02F07CFD52
:100E3000F56908E701233AE704A801F0EDFE21E790
:100E4000049BDD6E82E700BFA0230A0800B970474B
:100E500030B5044683B00D4602F060FF204601F035
:100E600009FE02AB456543F8040D184601F0D4FEB7
:100E700020460AF04BF805F0DBFA03B030BD00BFA6
:100E800070B582B018B90125284602B070BD04467D
:100E90000D4602F043FF204601F0ECFD866E009007
:100EA0006846019601F0B8FE294601A806F0B0FE9A
:100EB00000280CBF012500250FD0019B9E4209D0C0
:100EC000204601F0D7FD019A8266034668460093EA
:100ED00001F0A2FE20460AF019F805F0A9FA28460A
:100EE00002B070BD2DE9F047466886B00546304631
:100EF00001F0C0FDC36D0090D0F88840D0F880703C
:100F0000D0F86880B0F87C90002B63D0D3F800A0B4
:100F1000684601F081FE14B909E024683CB16368B9
:100F2000284698470028F8D006B0BDE8F0872B681F
:100F3000172B00F0A4801DDC0F2B00F08C807CDCD4
:100F40000B2B00F0BE800D2B0AD119F0080F07D132
:100F5000EB68DB6823B11B7A13B130460AF0B6FDAB
:100F60003046294608F020FD0028DDD0284608F04C
:100F7000CDFFD9E7262B74D02EDC1E2B00F0AD80E0
:100F8000202BEDD1EC68002CEAD0314660680BF0E4
:100F900061FE002800F0BE80304601F06BFDB0F825
:100FA0007C300190190740F12A8101A801F034FE3C
:100FB000314660680BF03CFE0028D1D0304601F08D
:100FC00059FD03466268019001A8C3F8802001F032
:100FD00023FEC5E79A469BE72A2B65D0B3F5107F21
:100FE000BED13046D5F80C8001F044FD06ACB0F817
:100FF0007C7044F8140D204601F00EFEEB68002BC7
:1010000092D098F80830002B00F0A980390740F101
:10101000B580304608F034FE07F48873B3F5887F56
:1010200082D107F080039BB2002B7FF47DAF414655
:10103000304605220AF0EEFC76E7112B22D0142B65
:101040008ED1304601A900F04BFC02AB03CBEB681C
:101050001860596068E7BAF1000F81D03046D04778
:101060007EE7EB68022B7FF45FAF06A9272241F8E9
:10107000142DA868039604930BF066FF54E7C5F897
:101080000C8051E73046EC6801F0F4FC01902389B4
:10109000012B05D1B0F87C3043F48073A0F87C308C
:1010A00001A801F0B9FD5BE7304601F0E3FCEB6815
:1010B0000090002B66D0C0F88430684601F0ACFD8B
:1010C00032E7304601F0D6FC03467030009301F061
:1010D000B3FA684601F0A0FD42E7EC68012C55D058
:1010E000002E3FF421AF02F019FE304601F0C2FCA1
:1010F000B0F87C3001901C0706D523F00803A0F857
:101100007C30304609F002FF01A801F085FD05F0B2
:101110008FF909E7304601F0ADFCB0F87C30019062
:101120001A0706D523F00803A0F87C30304609F0F2
:10113000EDFE01A801F070FD314620680BF078FD4E
:1011400000283FF40DAF304601F094FC03462268BE
:10115000019001A8C3F8802001F05EFD00E7304651
:1011600001F088FCB0F87C200190034622F48072E4
:101170002046A3F87C2001F04FFDD5E630460AF06A
:10118000A5FC46E7D0F88430EB6096E738460AF0D5
:10119000DDF918B338460AF099FC384609F08CFDA1
:1011A000A8B926B9002F7FF4BFAEEF60BCE602F00D
:1011B000B5FD304601F05EFCB0F87C3001901A07B6
:1011C00025D501A801F028FD05F032F9EAE721460E
:1011D000384608F0D5FC002EE4D0E8E740460AF097
:1011E000E1FC0746304601F045FC03466846C3F87B
:1011F0008070009301F010FD002ED3D0D7E743F0AC
:101200000803A0F87C30304609F080FECDE643F0BC
:101210000803A0F87C30304609F078FED1E700BF23
:101220002DE9F04F0F46B0F90C10B0F90AB08569FE
:10123000B0F90E60B0F910A0B0F812804D4C8FB02C
:1012400001EB0309B0F90830049343680593934414
:10125000603502F063FD4FF4805E324600974946E8
:101260005846039553460294CDF804E008F050FD2B
:10127000064628B905F0DCF830460FB0BDE8F08F1F
:1012800001F0F8FBDFF8F4A00499069030225546EF
:1012900008F092FC0DF1380B0FCD5BF8207D07F1C3
:1012A00034040FC40FCD0FC495E80300189B84E8E5
:1012B000030000257B66DAF82830FB65C7F880500C
:1012C000FD66C7F88850A7F87C80584601F0A4FC5A
:1012D00009A9304600F004FBBDF92A10BDF9280029
:1012E000BDF92C20BDF92E30234C03955B1A121A40
:1012F00041F282750132013302940096019508F0A3
:1013000007FDDAF8283004465B68304698473046D7
:1013100001F0B0FB034658469C66069301F07CFC46
:10132000304608F043FF02F0F9FC304601F0A2FB22
:10133000036F079007A8089301F06EFC059908A8B1
:1013400006F066FC38B905F073F805F071F8304620
:101350000FB0BDE8F08F304601F08CFB089A0267B1
:10136000034607A8079301F057FC304609F0CEFD6D
:10137000E9E700BFE50E0008791C0008D402002050
:101380002DE9F041044690B0006800F0CDF9B04B73
:101390006668A3F12C05002808BF1D461C2E00F22C
:1013A000F880DFE816F02200F600F600F600F600FE
:1013B0003500F600F600F600F600F6005100F600E3
:1013C000F600FB00F600F600F6000F01F600F6004E
:1013D00049014B014D014F01F600F600F6001D00DA
:1013E0006E69304610B0BDE8F081206801F042FB24
:1013F00010ABB0F85A2043F82C0D42F00C02A0F8C4
:101400005A20184601F008FC20680AF04BFCE8E777
:101410002B690193B4F910E0B4F91470B4F91860B1
:10142000B4F91C40EB6800933246704639462346B7
:10143000ADF82060ADF81CE0ADF81E70ADF82240AC
:10144000002602F0A7F8CCE71C2320680893079039
:1014500001F010FB036D059007A89847064605A804
:1014600001F0DAFB012E40F32681AB6802936B6832
:1014700001932B686269A16920690093334605F0E6
:1014800015FE2769A3693744C6EB0308286804F0F2
:1014900015FD42463946606902F050F9686804F06B
:1014A0000DFD606942460130394602F047F96B6A2A
:1014B000022B00F3F3802A6A964218DA63692069E6
:1014C000012E03F1020740F32481024406EB0308D6
:1014D000013A30444346394602F026FAA069821B9D
:1014E000EB69C01A39464346013002F01DFA012E5D
:1014F000D4BF66696369E7692868CCBFF61802360D
:10150000013F04F0DBFC3A463146206902F0B4F9B1
:101510003A463146A06902F0AFF9E769686804F01D
:10152000CDFC2069023F3A460130314602F0A4F971
:10153000A0693A460138314602F09EF9EB69022B68
:1015400040F38280AB6AE769A868022BCCBFFF1A20
:10155000023F04F0B3FCEA69022A00F396802B6A8A
:10156000022B00F38880286804F0A8FCA269216996
:10157000E06902F0E3F8686804F0A0FCA269216960
:10158000E069013A0131013802F0D8F8AE6A022E62
:1015900060DC0026304610B0BDE8F08104F1140193
:1015A0000EC9A8682569ADF81E10ADF82020ADF869
:1015B0002230ADF81C5004F081FC07A802F0E0F9DD
:1015C00000260EE7298B2269A3696669E569206810
:1015D000ADF81E605B1A0A44ADF82030ADF81C204F
:1015E000ADF8225001F046FA036F0590FBB10220DE
:1015F00004F0EEFC059AB2F87C30C3F3C0030E335E
:1016000002EB8303986804F059FC059B586B04F0C7
:101610006DFC059B186F01F02DFA059B0690B3F940
:101620005A2007A901F038FE06A801F0F5FA05A82E
:1016300001F0F2FA0026D4E6AE6AD2E6EE69D0E610
:101640002E6ACEE66E6ACCE62B6A022B8BDD79E73A
:10165000FC030020A269E7692169A8688C1C951E1B
:1016600004F02CFCB91B2A4620460131BB1E02F0B7
:101670005BF90026B5E6A269E869101A3B463146D7
:101680000130023A02F050F96DE720690244013A54
:1016900002303B46314602F047F960E7A86804F0A3
:1016A0000DFC61696B6A0B4442463846013B0231CE
:1016B00002F03AF91BE7286804F000FC2169EA69A6
:1016C00060690A44013A02F039F8A269E96960697F
:1016D000511A013102F032F8676920690137394641
:1016E00002F058F83946A06902F054F8686804F02E
:1016F000E5FB20693946013002F04CF8A069394613
:10170000013802F047F82769A3690237A3F10208FC
:10171000BCE60244013A02303B46394602F004F985
:10172000A069B846821EDBE610B5044682B080B1DF
:1017300002F0F4FA204601F09DF902ABB0F87C40CB
:1017400043F8040D1846C4F3C00401F065FA04F030
:101750006FFE204602B010BD2DE9F041044684B072
:101760000E4602F0DBFA24B904F062FE04B0BDE8D4
:10177000F081204601F07EF9458EC36D039005F09F
:101780002005ADB29F6845B1B0F954502DB9406BFA
:1017900002F020FA039B851C00E003465E6303A869
:1017A00001F03AFA3B680121204698473B6806461B
:1017B0000321204698473B688046002120469847F1
:1017C0000746204600F01AFA43463246294620468C
:1017D000009700F099F9204609F098FB04F028FEE4
:1017E00004B0BDE8F08100BF00B9704730B50446D1
:1017F00083B00D4602F092FA204601F03BF9036FE8
:1018000000906846019301F007FA294601A806F006
:10181000FFF918B904F00CFE03B030BD204601F00A
:1018200029F9019A026703466846009301F0F4F92A
:10183000204609F06BFB04F0FBFD03B030BD00BF98
:101840002DE9F04385B020B90546284605B0BDE82E
:10185000F08304460E4602F061FA204601F00AF9D0
:10186000B0F954500390B5422AD0418E01F02001C6
:1018700089B219B16DB303462F4601E003460F4606
:10188000DA6DA3F8546096680121336820469847C2
:1018900033688046032120469847336800218146FB
:1018A000204698470646204600F0A8F920460096B4
:1018B0004B464246394600F027F9204609F026FB00
:1018C00003A801F0A9F904F0B3FD284605B0BDE86E
:1018D000F083406B02F07EF9039B871CD0E700BFCA
:1018E0002DE9F04F89B007460D4601F0C3F8C36DEE
:1018F00005909C6801212368384698472368032196
:1019000080463846984723680221834638469847E0
:1019100023680021824638469847814605980AF098
:10192000A5FD064605980AF0A9FD03460598448ED4
:1019300004F02004A4B2B4B1B0F95420B0F9584076
:10194000002A4ED091B2C06E0C44A4B280B1039173
:101950000292019308F0EAFE019B029A03990FFAA2
:1019600080FE80B205E021462246C06E0028EED1FE
:1019700086461FFA89FC013ECBEB060B6444013B13
:101980000CF1FF3C8C44CAEB03030FFA8BFB0FFAFC
:1019900088F804446B812A80A5F802E0A5F812C0FB
:1019A000A5F808B0A5F810B0A5F80480A5F80C803B
:1019B000A5F80E90EC8005A801F02EF908AAB5F95B
:1019C000103042F8043D3846B5F90C30069306A9AC
:1019D00000F04CF8069A079BAA812B8209B0BDE85B
:1019E000F08F406B019302F0F5F8023081B20C44A5
:1019F00002B2A4B20598019BB7E700BF08B5438EB9
:101A000003F020039BB24BB10246B0F9540000B181
:101A100008BD506B02F0DEF8023008BD184608BD64
:101A200070B58AB00C46064601F024F80AABC26DC8
:101A300043F8280D1846956801F0EEF80196032C3E
:101A400005D8DFE804F00F0C0902172302936B6836
:101A500001A898470AB070BD15230293F7E7162333
:101A60000293F4E718230293F1E700BF2DE9F04356
:101A700083B088460446914600F0FCFF034602A866
:101A8000DA6D40F8083D9568B3F90070B3F902606B
:101A900001F0C2F82B6820460021984705462046F1
:101AA00008F0AAFD60B3044607E001A801F0B4F80D
:101AB000204608F0DFFD044610B3204600F0DAFFB0
:101AC000B0F9023001909B1B9D42EED1836A1B0648
:101AD0000BD5B0F90030D9F80020DB1B934203F19D
:101AE000FF33E2DCC9F80030DFE7B0F90430D8F8A2
:101AF0000020DB1B9342A4BF0133C8F80030D4E7B9
:101B000003B0BDE8F08300BF2DE9F04F83B00E466F
:101B10009B460546144600F0ADFF0DF10808C26D66
:101B200048F8080DD2F80890FFF768FF07464046CE
:101B300001F072F8D9F80030012128469847D9F809
:101B400000300321824628469847D9F80030804665
:101B5000002128469847B742814644D0284608F0DD
:101B60004BFDBE1B0546002844D00C9B0027C8EB4C
:101B70000B0BC3EB0909C4EB0A0AB8460AE0B4F53B
:101B8000007F10D001A801F047F8284608F072FD48
:101B9000054678B3284600F06DFF846A019004F48E
:101BA0002074802CEBD1BEB9836A1A0609D49B0538
:101BB000E8D507FB06A14A46284609F021FD013772
:101BC000E0E708FB16B14A46284609F019FD019BDB
:101BD00008F101089B6AEAE728463246314609F0D7
:101BE000D9FD0198E0E7A245B8D1D845B6D10C9B04
:101BF0009842B3D103B0BDE8F08F00BF70B586B096
:101C0000064600F037FF034606A89C6E40F8183DD4
:101C1000DD6E01F001F884B96DB1304601A9FFF71E
:101C20005FFEBDF90A20BDF90630BDF9081028464F
:101C3000D21A09F0A7FC06B070BD304601A9FFF723
:101C40004FFEBDF90A20BDF90810204609F09AFCA4
:101C5000BDF90A00BDF90E20BDF90C30BDF9081020
:101C6000121A591A2046013201310AF045F8002DA6
:101C7000D7D106B070BD00BF2DE9F043456887B0ED
:101C80000446284608F004FD074600F0F3FE03462C
:101C900006A85E6E40F8143DD3F84880D3F88090D3
:101CA00000F0BAFF23680E3B232B3FD8DFE803F098
:101CB00035463E3E3E3E12123E123E3E3E3E3E3EC9
:101CC00018243E3E2B3E3E3E3E3E3E3E3E3E3E3E87
:101CD0003E3E3E30204608F019F907B0BDE8F083DB
:101CE000E368002BF9D0B9F1000F3BD04D4539D056
:101CF000484609F0EBFEF0E72146384607F054FE6F
:101D000007B0BDE8F083C4F80C8007B0BDE8F083ED
:101D10000023E36007B0BDE8F083E3685A68002A57
:101D200004DD1B68092B1DD00A2B1FD0002ED1D03B
:101D300067602046B04707B0BDE8F0836FF070439E
:101D4000984504D0404607F0A1FA00F0F7FF002EB6
:101D5000C3D094E80F0002AC84E80F00204603953E
:101D6000B047BAE7284609F01DFFB6E7284609F054
:101D700061FFB2E738B5204B204C1D6801F0CEFF63
:101D8000284607F083FA04F053FB1D4B1D6801F051
:101D9000C5FF284607F0B4FA04F04AFB01F0BEFF85
:101DA000236801221A7604F043FB01F0B7FF236891
:101DB00000259D8504F03CFB01F0B0FF23685D85A4
:101DC00004F036FB01F0AAFF284607F0CBFA04F036
:101DD0002FFB0C4B1D6801F0A1FF236805B1DD61ED
:101DE00004F026FB01F09AFF236800229A76BDE8F2
:101DF000384004F01DBB00BF7402002078020020B0
:101E0000700200206C020020014B83E80300704741
:101E1000BC0A0220014B83E803007047C40A022079
:101E2000014B83E803007047CC0A0220704700BFD3
:101E3000704700BF2DE9F04F4F4E3368DA69B3F9B0
:101E40002250D469B4F80CB083458BB07DD8E189B9
:101E500081427AD3216808914FF0FF31CBEB000B20
:101E60000791BBF1FF3F6AD0177EB3F92A80A27CAD
:101E7000B3F9249094F810A017FB02F340460693A0
:101E800007F070FA3368069A0899099002FB0B1064
:101E90009A6BDB6904900592A27C03924FF0010BD0
:101EA000CDF808B0DA7E01929B7E009328463B462F
:101EB0005246494606F024FB079801301CD048F0F2
:101EC000020007F04FFA2C4A079812680899069BFF
:101ED00003FB0013916BD26905910493A37C0393D8
:101EE000CDF808B0D37E0193937E009352463B46D3
:101EF0004946284606F004FB33681F4FDB695A7ECB
:101F00001B7E9A4214D9B8F1020F11D088F0040058
:101F100007F028FA3B68DB69187ED97E9A7E5B7EE3
:101F200000FB01910AFB02524B44284606F0F8FCE4
:101F30009DF8240007F016FA3368B3F92250627C4A
:101F400015445D840BB0BDE8F08FA1680029F6D080
:101F50000F88B842F3D3B1F802E08645EFD3496861
:101F6000C01B80B26768089701EB800731F920B089
:101F7000B7F90210079174E778020020044B1B6840
:101F8000DB69DB6909B11A7C0A60587C704700BFC5
:101F90007802002002230B80704700BFC3699A8932
:101FA0008A4202D8DA898A4211D2986818B1038825
:101FB000994201D20020704742888A42FAD3C91A56
:101FC000436833F82100C043C0F3C030704701209C
:101FD000704700BF2DE9F04F3E4D2B68DA69B3F929
:101FE0002A60D36989B043B11A88904202D35988D4
:101FF000814205D29B68002BF6D109B0BDE8F08F75
:10200000D3F80480DFF8CC90841A08EBC40730467C
:1020100097F802B007F0A6F98246286818F834202D
:10202000D0F81CE0D0F838C09EF81830B0F9241071
:10203000B0F92200CDF814C006934FF0010C7B6874
:102040000493CDF80CB0CDF808C09EF81BC0CDF8B5
:1020500004C09EF81AE0069BCDF800E006F050FAA6
:102060002B68DA69537E92F818B05B4523D9022EAB
:10207000069320D0D17E079101F046FD064601F07F
:102080000DFD03F01BFFD9F8002018F834C0D46907
:10209000B2F9220094F81BE00799B2F92440069B9C
:1020A0000CFB0E0201FB034301FB0B4106F038FC65
:1020B000304603F003FF504607F054F92B68797857
:1020C000D8695A8C807E00FB01225A8409B0BDE891
:1020D000F08F00BF780200202DE9F047294D2C68D1
:1020E000E369DB6986B043B11A88904202D359880C
:1020F000814205D29B68002BF6D106B0BDE8F0877F
:10210000214EB4F92A103478002C38D1821A02EB0F
:1021100042025E6894000846375D07F023F92B6899
:10212000325DD3F838A0B3F924C0B3F922E0D969FD
:1021300034448046637894F9039094F90200CDF812
:1021400014A0A66804960737FF100126039702968D
:10215000CE7E0196897E009170440CEB090106F059
:10216000CFF9404607F0FEF82B682179D8695A8CE0
:10217000807E00FB01225A8406B0BDE8F08741F062
:102180000201C3E778020020D80E0220114B70B480
:102190001B68DD69EB6943B11A88904202D35C8801
:1021A000844205D29B68002BF6D1184670BC70475C
:1021B000801A00EB40005E68AC7E8200B3181B7989
:1021C00013FB04F00029F1D0B35C14FB03F30B60A4
:1021D00070BC704778020020114B1B68DB69DB691B
:1021E000DBB110B40C461A88904202D35988814260
:1021F00006D29B68002BF6D101205DF8044B704796
:10220000821A5B6802EB420203EB820207CA84E88F
:10221000070000205DF8044B70470120704700BFA5
:102220007802002001230B80704700BFC06950B1C5
:1022300003888B4202D843888B4203D280680028EF
:10224000F6D17047012070472DE9F0473A4E3368C8
:1022500084B0DB6904AF93F81990DB7E47F80C0D6E
:1022600000250C4619FB03F9B046AA46013C384646
:1022700022D403F099FF3368DB6982460146D869AE
:1022800000F088F80028F1D003884168D8F80020D1
:10229000C3EB0A0303EB430301EB8303D26993F916
:1022A00002101B79927E0B4402FB03F3002BC8BF84
:1022B000ED18013C3846DCD5BAF1000F03D050468A
:1022C00005F0E6FA054432681C49B2F92230B2F949
:1022D0002420ADF80830501E013B0968ADF80A20F3
:1022E0001D448144ADF80C50ADF80E9019B18B68C7
:1022F0000BB102A8984701F007FC33685B8D5B07C0
:10230000044616D401F0CAFB03F0D8FDBDF90E3027
:10231000BDF90C20BDF90A10BDF9080006F000FB5C
:10232000204603F0CBFD064B01221A7004B0BDE835
:10233000F08701F0E9FBE7E778020020000F0220B8
:10234000D80E022070B5104D2B68B3F92A6082B008
:10235000B20701900C4612D0013C09D401A803F049
:1023600023FF2B68DB69013C1B689847631CF5D190
:102370002A68064B568500221A7002B070BD044BC5
:102380001B689847E8E700BF78020020D80E0220BB
:102390007C02002040B103888B4202D843888B42E4
:1023A00002D280680028F6D1704700BF114B70B48C
:1023B0001B68DD69EB6943B11A88904202D35C88DF
:1023C000844205D29B68002BF6D1184670BC70473A
:1023D0005E68AC7E821A06EBC2035B7813FB04F0E6
:1023E0000029F3D016F8323014FB03F30B6070BCF5
:1023F000704700BF7802002001230B80704700BFA8
:10240000C06950B103888B4202D843888B4203D203
:1024100080680028F6D17047012070472DE9F04709
:10242000234E3368002B3FDD224D234F2C68D7F815
:102430000090C3EB431804EB880808F10C080C3437
:102440004FF0000AA4F10803742218464946FDF72C
:1024500056FF221F2063A06344F80CAC6263E46063
:102460007C34A045EED10024A04603E092B132684E
:10247000904514DA13F038FB2B681A59904203EB9D
:10248000040108F1010804F17C04EFD10431396042
:10249000BDE8F087086004313960BDE8F08719466F
:1024A00004313960BDE8F087024B034F1968EDE74E
:1024B0001C030020E80C022078020020F8B5194F18
:1024C000194B1A4E384640F80C3F05F053FB346860
:1024D000C4EB4414A400204600F006F9144B386005
:1024E00022461B68002198474FF0FF33736013F0BA
:1024F00005FB3368002B11DD0024254603E072B193
:1025000033689D420ADA13F0EFFA3B681A59904299
:10251000234405F1010504F17C04F0D1F8BD1860F5
:10252000F8BD00BFE80C0220312901081C0300207F
:102530002803002000B9704710B5044601F0EEFBF7
:1025400020460AF0CFFF044603F072FF204610BD7C
:1025500070B5054601F0E2FB25B9002403F068FFE1
:10256000204670BD01F0DAFB28460AF0BBFF0446A6
:1025700003F05EFF002CF0D0144E1549F269736B26
:102580000132F26113F83420013203F8342003EBF6
:10259000C4032A465D680B6805F1080000219847CE
:1025A0002968726B12F83130012B01D9F06930B90A
:1025B000013B02F8313003F03BFF204670BD01388B
:1025C000013BF06102F83130F5E700BF080E022050
:1025D00028030020024B21F0030183E80300704729
:1025E000D40A022000B9704770B50D4C054601F0C1
:1025F00095FB636BEE003344596848680AF0C4FDEC
:10260000626B6368616A1644013300206360716025
:1026100002F835006562BDE8704003F009BF00BFF5
:10262000080E022028B1034AD36B036003B158603F
:10263000D0637047080E0220F8B5054601F06EFB26
:102640002C68B4B10E4E01F069FB736BE7003B449C
:10265000596848680AF098FD716B7368726A0F4494
:102660000133002073607A6001F83400746203F073
:10267000DFFE00232B60BDE8F84003F0D9BE00BFA9
:10268000080E022000292BDD2DE9F0470025154F0B
:102690008A46041FA94601F041FB54F8046F013536
:1026A000B6B101F03BFB7B6B4FEAC6084344596867
:1026B00048680AF069FD796B7B687A6A884401335F
:1026C0007B60C8F8042001F836907E6203F0B0FE0B
:1026D000C4F8009003F0ACFEAA45DCD1BDE8F08759
:1026E000704700BF080E0220F8B5894E96F82830D2
:1026F0000446002B2FD00334356CF26B24F0030416
:102700000434A54238BF254662B152F8043C9D42CC
:10271000144604D114E054F8043C9D4210D02468BF
:10272000002CF8D1F368B46B1C4454F8041C611AF3
:102730000B68002B65D14B689D426CDD002408E0DE
:1027400023680BB161685960616801B10B60A242F6
:1027500053D02046F8BD6F4B9A685868012186F81F
:1027600028100AB982089A605A253562102720225B
:10277000402519683764B264356580274FF480724C
:102780004FF40075B7653266B5664FF480674FF455
:1027900000624FF48055A1F114033767B267C6F8A1
:1027A00080504FF400574FF480424FF400450344EB
:1027B000C6F88870C6F89020C6F898504FF4803755
:1027C0004FF400324FF48025C6F8A070C6F8A82058
:1027D000C6F8B050022201254FF40027B16373639D
:1027E0003261F060C6F8B8705D60756275600AF0BD
:1027F000CBFC0EF0C9F935637DE72368F36320460F
:10280000F8BD002010F004FC54F8041C611A0B6899
:10281000002B93D18FE7D6F8B8703D4A581B041DA2
:10282000BB420C4472D2D2F8B070BB426CD2D2F828
:10283000A870BB4266D2D2F8A070BB4260D2D2F878
:1028400098709F425AD9D2F89070BB4254D2D2F8B5
:102850008870BB424ED2D2F88070BB4248D2926F91
:10286000934243D2376F2A4ABB423DD2976EBB4256
:1028700038D2176EBB4233D2976DBB422ED2176D42
:10288000BB4229D2976CBB4224D2126C93420CD229
:10289000F2687369521B2B44F260736110B944F8FB
:1028A000045C56E70AF070FCF9E700223768D1F8BB
:1028B00008E0FB1A3360CB68BEF1000F01D0CEF800
:1028C000043013B1C3F800E0E2E706EBC202C2F83D
:1028D00044E0DDE70122E9E70222E7E70322E5E73A
:1028E0000422E3E70522E1E70622DFE70722DDE72E
:1028F0000822DBE70922D9E70A22D7E70B22D5E72E
:102900000C22D3E70D22D1E70E22CFE70F22CDE72D
:10291000080E0220D40A0220F8B54A4C94F8283058
:10292000002B3DD0D4F8BC30464A3BBBD2F8B43083
:1029300023BBD2F8AC300BBBD2F8A430F3B9D2F839
:102940009C30DBB9D2F89430C3B9D2F88C30ABB933
:10295000D2F8843093B9D36F83B9536F73B9E36EF0
:1029600063B9536E53B9D36D43B9536D33B9D36C57
:1029700023B9536C13B96FF00B00F8BD9B68002BA3
:10298000F9D0002201E09B6843B159689B689142ED
:10299000104684BF0A461046002BF4D10C38F8BD0F
:1029A000294B9A685868012184F828100AB98208CE
:1029B0009A601968A1635A26102220252662226493
:1029C000A564402780264FF480724FF40075A1F172
:1029D00014032765A6652266A5664FF480674FF449
:1029E00000664FF480524FF4005503442767A667F2
:1029F000C4F88020C4F888504FF480474FF4004654
:102A00004FF480324FF40035C4F89070C4F89860E9
:102A1000C4F8A020C4F8A850022201254FF4802752
:102A20004FF4002663632261E060C4F8B070C4F81C
:102A3000B8605D60656265600AF0A6FB0EF0A4F800
:102A400025636FE7080E0220D40A022030B1044B40
:102A50005B6B03EBC000436858680C38704700BFDD
:102A6000080E0220024A936901339361704700BF48
:102A7000080E0220074AD169536B0131D16113F866
:102A80003020013203F8302003EBC00358680830CF
:102A9000704700BF080E0220F8B5584C01F03EF90F
:102AA00094F82830002B57D0D4F8BC30534A9BBB45
:102AB000D2F8B43083BBD2F8AC306BBBD2F8A430C0
:102AC00053BBD2F89C303BBBD2F8943023BBD2F836
:102AD0008C300BBBD2F88430F3B9D36FE3B9536FAA
:102AE000D3B9E36EC3B9536EB3B9D36DA3B9536D04
:102AF00093B9D36C83B9536C73B96FF00B0340492E
:102B0000DA1781FB0313C2EB6313246A04FB03F49B
:102B100003F08EFC2046F8BD9B68002BF5D0002208
:102B200001E09B6843B159689B689142104684BF9D
:102B30000A461046002BF4D10C38B0F5800F03463E
:102B4000DDD8226A2E4B02FB00F0A3FB00235C09B8
:102B500003F06EFC2046F8BD2A4B9A6858680121A4
:102B600084F828100AB982089A601968A1635A2665
:102B70001022202526622264A564402780264FF477
:102B800080724FF40075A1F114032765A6652266D3
:102B9000A5664FF480674FF400664FF480524FF4FF
:102BA000005503442767A667C4F88020C4F88850FE
:102BB0004FF480474FF400464FF480324FF4003515
:102BC000C4F89070C4F89860C4F8A020C4F8A85065
:102BD000022201254FF480274FF40026636322610F
:102BE000E060C4F8B070C4F8B8605D6065626560AC
:102BF0000AF0CAFA0DF0C8FF256355E7080E022057
:102C00001F85EB51D40A0220024A9369013B93616C
:102C1000704700BF080E022030B403680A4A53F818
:102C2000085C0446506B10F83530012B03D9D1698C
:102C300009B10139D161013B00F83530002210465D
:102C4000226030BC704700BF080E0220034B5B6B54
:102C500003EBC00040680830704700BF080E022038
:102C60002DE9F04114460646884601F057F8204603
:102C700000F056FFE8B9A7001B4D3B1905EB830395
:102C8000DA68B24206D11B69434503D1BDE8F04181
:102C900003F0CEBB3B1905EB83035869D0B93C4424
:102CA00005EB8404E660C4F81080BDE8F04103F051
:102CB000BFBB0D4B04EB840403EB840463689A6888
:102CC0005968C2EB0802711A03F052F9BDE8F041ED
:102CD00003F0AEBB5B689A685968C2EB0802711AD0
:102CE00002F052FDDBE700BF680D0220C3B2CAB29A
:102CF0009A1A92B230B415B2002DBCBF524215B22E
:102D0000C0F30723C1F307229B1A9BB2090C1AB226
:102D1000C1EB1041002A89B20CB2BCBF5B421AB2AF
:102D2000002CBCBF49420CB202FB02F205FB05209D
:102D3000A1B201FB010030BC704700BF2DE9F0419A
:102D4000002182B0084600F05BFF00F0E7FF04209E
:102D500006F008FB174B1B69DD6C1C6DA5F57F5752
:102D6000A4F57F5605F57F5504F57F5480463F3F17
:102D70003F353F3E3F346846ADF80070ADF8045033
:102D8000ADF80260ADF8064009F080FB48B123467B
:102D90002A463146384605F0C3FD09F00BFA0028F3
:102DA000F5D1404606F0DEFA03F042FB02B0BDE882
:102DB000F08100BF680200202DE9F047044682B090
:102DC0000D461646002B38D09A46009626680B9B77
:102DD0000A9A51462046B047074618B9384602B00D
:102DE000BDE8F08707F082FB618A8046384606F02E
:102DF000C7FE384608F0C2FF013D404608F0BEFF5E
:102E0000002DC8BF4FF0000904DC1AE008F0B6FF3F
:102E1000013D16D054F81C6FCDF8009000232046D9
:102E20001A464146B04706460028EFD1384607F01B
:102E30009DF8304602B0BDE8F08707F065FB82469A
:102E4000C3E740461D2108F08FFDBAF1FF3FC5D012
:102E500000F064FF07F0DEFB60B9BA4502D03846E7
:102E600008F0A0FE03F0E4FA384602B0BDE8F087AF
:102E70000028F4D0FFF7EAFE80698742F8D1F1E735
:102E800080B582B000AF7860054B1B68002B03D083
:102E9000034B1B687868984700BF0837BD4680BD64
:102EA000C80E0220012B12DCF8B506461C2017467E
:102EB0000C461D46FFF718FCB8B154B1046100235D
:102EC000836085618782C66003604360F8BD00202F
:102ED0007047074B53F825200AB9F0E71A461368E4
:102EE000002BFBD113690361E9E70020F8BD00BFA7
:102EF000E80E0220012B3BDC2DE9F84381461C2023
:102F000090460F461E46FFF7EFFB054600287FD090
:102F1000414A002F31D00023DFF804E152F8264067
:102F200003609EF8001007618E428661A0F814804D
:102F3000C0F80C904360836002DB731C8EF8003095
:102F4000002C5DD021464C68002CFBD1D9F8000044
:102F5000CB681B6883422CDD09680029F8D148B989
:102F60002E4B16361A68284642F82650BDE8F883DC
:102F7000002070472846BDE8F88352F82610002943
:102F800030D0084600E018460368002BFBD1DFF87C
:102F900090E000692B6028619EF80000AE618642D7
:102FA000A5F81480C5F80C906B60AB60CBDB0C46C9
:102FB000C3E70AD04B6843B31D606B608D4214BFFA
:102FC0000B4600234D602B60C9E7B8F1010FF1D12A
:102FD00004E0D9680C6884421946EBDB0B68002BCF
:102FE000F7D1E7E7DFF838E001609EF8003086614E
:102FF0009E42A0F81480C0F80C9041608160D6DA3F
:1030000042F82650D9F80000A9E742F82650D5E743
:103010000020BDE8F88300BFE80E022078020020FF
:10302000E00E0220FFF7FEBA00283CD070B484699D
:10303000012C03DD0123184670BC70471E4B1F4D49
:103040001A789442A4BF621C1A7055F824300BB948
:103050002FE013465A68002AFBD1C268116802E0CB
:103060001B68002BE6D0DA6812689142F8DB0DD0BD
:103070005A68DAB110604260984214BF1A460022C2
:1030800058600023026070BC18467047828A012A8B
:10309000EED104E0D3681E68B1421346E8DC1A683A
:1030A000002AF7D1E4E701231846704745F82400C9
:1030B000E2E745F82400BEE7E00E0220E80E022019
:1030C00000284DD02DE9F041DFF89CE0254F9EF817
:1030D0000060BC4602E02846002D27D084690568C0
:1030E000012CF8DCB44257F82430A4BF661CF6B2B9
:1030F0000BB932E013465A68002AFBD1C268116846
:1031000002E01B68002BE6D0DA6812688A42F8DC1D
:1031100010D05A68A2B110604260984214BF1A469B
:103120000022586002602846002DD7D18EF800603A
:10313000BDE8F081828A012A0BD05A68002AEAD1C0
:1031400047F82400E9E7D368D3F8008088451346A0
:10315000DFDB1A68002AF6D1DBE74CF82400BAE777
:10316000704700BFE80E0220E00E02200F4A81697E
:1031700052F8213098420AD042680AB103681360BD
:10318000036803B15A60002303604360704703681B
:1031900042F821302BB100225A604268002AEED159
:1031A000F0E74268002AEAD1EDE700BFE80E02200E
:1031B0000020704701280EDC084B53F8200058B15E
:1031C000C3681B681BB908E0C3681B6823B10068AB
:1031D0000028F9D17047002070477047E80E0220A0
:1031E00000B970472DE9F04182B01E4615460C46E5
:1031F0000746FFF73FFC02AB026843F8040D184690
:10320000D2F80080FFF708FD33462A4621463846AB
:10321000C04702B0BDE8F0812DE9F843074612F03F
:1032200067FC074412F064FC3E1A002EDFF8609041
:10323000DFF8608022DD00F049FBD9F800309E42C3
:10324000A8BF1E4600F06AFDD8F80040FFF70AFC50
:10325000B4B1254603F0ECF8013DFBD1304612F045
:103260003DFC00F05BFD013CFBD1FFF7CDFC03F022
:10327000DFF812F03DFC3E1A002EDCDCBDE8F883DE
:10328000304612F02BFCFFF7BFFC03F0D1F8F0E75B
:1032900088020020EC0C022020B3F0B50C4683B06D
:1032A0000546164600F03AFDD4B1204608F056FD1A
:1032B000074638B168463A46214604F02FFB684677
:1032C00008F04CFD3246214647F6FF73284603F0CE
:1032D00045FB384608F042FD03F0AAF803B0F0BD04
:1032E0002746EFE7704700BF08B100F001B870470C
:1032F0002DE9F04F89468BB01546044603921F46D0
:1033000000F00CFDB9F90030B9F90410B9F9060064
:103310000193CE1A0291B9F902B0059000F016FCA3
:1033200015F00C0806F10106049076D11FFA80FA18
:10333000484608F013FD02460490A8B10198002108
:103340000B4660F30F01029860F30F0305986BF3CF
:103350001F4160F31F43069106A84946079304F0F6
:10336000DDFA06A808F0FAFC039B03F003080AF153
:10337000FF33039343461FFA8BF5B0461E4615E014
:10338000022E34D01EB9B9F80030ADF820302046F6
:10339000594608AA03F088FA20463A46414604F006
:1033A000A3FC044455442378ADB273B33A46414676
:1033B000204604F003FD039BBDF80420ADF8202057
:1033C0000146EB18BDF80820ADF822508346204690
:1033D000ADF82420ADF8263004F0EEF9012ECFD15F
:1033E000B9F804300133181AADF82000CFE7B9F965
:1033F0000010B9F904305B1A181A013000EBD070D4
:1034000001EB6000ADF82000C1E7049808F0A6FCCD
:1034100003F00EF80BB0BDE8F08FA24600F07EFC82
:103420003A4631465046002504F05EFC40B18244E5
:103430003A4631465046013504F056FC0028F6D194
:1034400002F0F6FFB8F1080F08D0B8F10C0F0FD05A
:10345000B8F1040F02D0BDF810A069E7BDF810A0C4
:10346000059B15FB0AF501335D1B0FFA85FB5FE732
:10347000059B0499CBEB0303013305FB113505EBE9
:10348000D5750BEB65050FFA85FB1FFA81FA4FE73F
:103490002DE9F04FDFF8F49089B0044690460F46CE
:1034A00000F03CFCD9F800302088DA6C1D6D638890
:1034B0001744A844421E013B3A44434406A8ADF8D1
:1034C0001870ADF81A80ADF81C20ADF81E3008F069
:1034D000DDFF00284ED0DFF8B8A0CB461AE040F060
:1034E000020002F0F7FC216921B3D4F80CE0A668D1
:1034F000638822888DE840400120039002900E6886
:1035000038464146B047284602F0E4FC08F052FE37
:1035100000282FD00020E66802F0DCFC054616B13A
:103520003379002BDBD125F0020002F0D3FC2169B6
:103530000029DAD1D9F80020DAF80030527CE068AE
:1035400021469847E188D0B163882288A668059013
:10355000A0880291012103900191009138464146D3
:10356000049604F0CDFF284602F0B4FC08F022FED9
:103570000028CFD102F05CFF09B0BDE8F08F01292F
:1035800004BFDBF80030986BDEE700BF7802002054
:10359000680200202DE9F04F91B081461E460F468B
:1035A000904600F0BBFB644B1C68E56C246DA019D1
:1035B000E11905EB090305EB0802044601900EA88A
:1035C000079308920291ADF83830ADF83C20ADF881
:1035D0003A10ADF83E4008F059FF002800F0918005
:1035E000019B029A9DF868409DF86C70C2EB030B3A
:1035F0001A9AC2F307201B9AC2F307261A9AC2F33B
:1036000007411B9A0BEBDB735B10C2F3074E1A9A50
:103610000BFB04353C1B120E06940BFB0034301AD6
:1036200003900BFB01300BFB02330D931B9B0A95A0
:10363000C1EB0E01C2EB13630B940C900491059344
:103640005E4600F061FA1A9B1B9A0990934269D07A
:10365000002E52D0029D019A95425BDC0AAF0246D1
:1036600097E880074FF0010B06E00BF1010B019B7F
:103670000135AB4222462FDB9AFBF6F399FBF6F4B9
:103680001B0697FBF6F143EA044398FBF6F441EA84
:10369000042405991C43039B8A4404999844029B83
:1036A00089440699AB4210460F44E0DA9442DCD0DC
:1036B00005F026FEBBF1010FCBEB050105F1FF3351
:1036C000089A079822D005F02BF9019B0135AB42EF
:1036D0004FF0010B2246CFDA204605F011FEBBF178
:1036E000010F19D0019B089A0798CBEB0301013118
:1036F00005F016F9099805F003FE08F05BFD0028B7
:103700009FD102F095FE11B0BDE8F08F691E05F063
:103710007DF8ACE705F0F4FD089A0199079805F0EB
:1037200075F8E7E7184605F0EBFD019B089A02994A
:10373000079805F0F5F8DDE778020020F0B5144FA2
:1037400083B006460D46144600F0E8FA3B68196D52
:10375000DA6C0E4433B2154414446846ADF8005098
:10376000ADF80440ADF80230ADF8063008F08EFE3A
:1037700050B13B685B6E22461B683146284698472D
:1037800008F018FD0028F4D102F052FE03B0F0BD9D
:103790007802002070B5134E82B005460C4600F04A
:1037A000BDFA3368DA6C1B6D15441C442AB223B28F
:1037B0006846ADF80420ADF80020ADF80630ADF84D
:1037C000023008F063FE48B133685B6E21465B68E7
:1037D0002846984708F0EEFC0028F5D102F028FEB4
:1037E00002B070BD780200202DE9F04782B0044697
:1037F00089469246984600F091FA1E4B1F683E7E1D
:10380000FD6C3F6D013EB6B22C44B9445544B844FA
:10381000A11B7219C6EB090368464644ADF80010B7
:10382000ADF80420ADF80230ADF8066008F02EFEC9
:10383000D8B109F1010708F1FF362A46494620466A
:1038400004F0E4FF2A464146204604F0DFFF3246FA
:103850003946204605F03AF832463946284605F002
:1038600035F808F0A7FC0028E7D102F0E1FD02B02E
:10387000BDE8F0877802002070B582B00646144695
:103880000D4600F04BFA104B1A68D36C126D1E44B3
:1038900033B2154414446846ADF80250ADF8064002
:1038A000ADF80030ADF8043008F0F0FD40B122462C
:1038B0002946304605F00AF808F07CFC0028F6D1CD
:1038C00002F0B6FD02B070BD780200202DE9F04193
:1038D000124F134EDFF84C8000253C681CB1A04706
:1038E000041C18BF012406F075FC3368002818BFBB
:1038F00001244BB1984738B1D8F8003013B10124F6
:1039000098473CB10125E8E7D8F80030002BF7D103
:10391000002CF7D12846BDE8F08100BF140F02202B
:10392000180F0220100F0220F0B583B0074616468C
:103930001C460D4600F0F2F9104B1B68DA6C1B6D4B
:10394000174416441D441C446846ADF80070ADF899
:103950000460ADF80250ADF8064008F097FD48B19C
:10396000234632462946384604F0DAFF08F022FCA6
:103970000028F5D102F05CFD03B0F0BD7802002014
:10398000F0B583B0B0F90070B0F90260B0F904503E
:10399000B0F9064000F0C2F9104B1B68DA6C1B6DE1
:1039A000174415441E441C446846ADF80070ADF839
:1039B0000450ADF80260ADF8064008F067FD48B16C
:1039C00023462A463146384604F0AAFF08F0F2FBA7
:1039D0000028F5D102F02CFD03B0F0BD78020020E4
:1039E000002850D0C388013B10B5848880681F2B05
:1039F00047D8DFE803F0162346314646463C4646A4
:103A0000464646464640464646464646464646465C
:103A1000464646464610A31002FB031150F821000B
:103A200010BD02FB04F200EBD104C843A35C00F01C
:103A3000070023FA00F000F0010010BD02FB04F2C1
:103A400000EB91046FEA4100A35C00F0060023FA4A
:103A500000F000F0030010BD02FB04F200EB510483
:103A6000CB07A05C4CBF00F00F00000910BD02FBAB
:103A70000404605C10BD631002FB031130F81100F8
:103A800010BD002010BD7047034B53F82000C368E1
:103A900008219B6A184700BFE80E022010B500F00D
:103AA0003DF904F07DFF05F0B5F9044602F0C0FCD5
:103AB000204610BD10B5044600F030F9054B1B68D8
:103AC000DB6900215B6820469847044602F0B0FCA1
:103AD000204610BD7802002038B504460D4600F09F
:103AE0001DF9064B1B68DB6929465B682046984731
:103AF000044602F09DFC204638BD00BF780200203D
:103B000008B106F0CBBC704710B500F007F904F01F
:103B10004FFF05F07FF9044602F08AFC204610BDF5
:103B200001289ABF024B53F820000020704700BFC5
:103B3000080C022010B500F0F1F8034B1B681C7C48
:103B400002F076FC204610BD7802002010B500F08F
:103B5000E5F8044B1B68DB695C7E02F069FC2046DB
:103B600010BD00BF7802002070B504460E46154611
:103B700000F0D4F820462A46314604F0E7FF044618
:103B800010B1002333602B6002F052FC204670BD60
:103B900038B505460C4600F0C1F8064A064BB2F9A6
:103BA0000020B3F900302A602360BDE8384002F0FD
:103BB0003FBC00BFCE0E0220D00E022004483423AA
:103BC00035216122017002718370C370704700BF9C
:103BD00060020020027EC07E02FB00F0704700BF42
:103BE000024B53F820301B6918687047E80E02201A
:103BF000024B53F820301B6958687047E80E0220CA
:103C000038B505460C4600F089F8044B1B685D8406
:103C10009C8402F00DFC002038BD00BF780200201B
:103C200090B583B000AF344A334B1B6823F00103D7
:103C30001360324B01221A6000BF304B1B68002B0F
:103C4000FBD12F4B2F4A1A602D4B1B682E4A9342F3
:103C500000D0FEE702F0E8FD2C4B2E221A7011F086
:103C60004BFF2B480EF012FA10F070FA786004F057
:103C7000E7FF0346002B0CBF01230023DCB205F055
:103C800025F80346002B0CBF01230023DBB223439E
:103C9000DBB2002B09D004F0E9FF044605F02CF854
:103CA00003461946204605F057FB0021002002F08C
:103CB0006FF907F00FF8FEF7B1FB164B1B68002BEE
:103CC00012D00DE0134B1B681B68002B03D0114B67
:103CD0001B681B6898470F4B1B685B680D4A136095
:103CE0000C4B1B68002BEDD10B4B01221A707B682B
:103CF00018460C37BD4690BD002000E00830024059
:103D000000300240C2A507F4CDB5E8B5CC0E0220C4
:103D1000E80A0220600B0220D90E02202DE9F041B2
:103D2000234D6B6823B111F0DFFEAB68984204D0DD
:103D300011F032FF11F0D8FEA8606B680133012B3F
:103D40006B6001D0BDE8F0811A4F3B68002B29DD84
:103D50000024264606E042B33B6801369E4204F149
:103D60007C041FDA11F0C0FE2B681A5990422344DC
:103D7000F1D17B68B342E5D0002B10DB2A68C3EB9E
:103D8000431302EB8308FFF713FA2B68C8F8780097
:103D90001C44094BA06F04341C60FFF791F97E604E
:103DA000BDE8F08100242646E3E71860E1E700BFA4
:103DB000E80C02201C0300207802002010B582B01D
:103DC00028B9134B1B681C6E14B902B010BD044611
:103DD000FFF7A4FF2046FEF74DFE02AB446943F80F
:103DE000080D1846FEF718FF1CB902F021FB02B0BF
:103DF00010BD2046FEF73EFE02AC826844F8040D7A
:103E0000936898472046FEF707FF02F011FBEEE7A4
:103E10007802002000B97047014A114600F002B84C
:103E200001F0FFFF2DE9F04784B00C461546064629
:103E3000FFF774FF002002F04DF8DFF8E480D8F8B7
:103E40000030814630461F6EFEF714FE0368009076
:103E5000986902F007F8314B9C42009B04BFB3F90C
:103E60000440B3F906501A895B89ADF80840013A5D
:103E7000013B22442B448246ADF80C20ADF80E30B5
:103E8000ADF80A5005F0A0FE6846FEF7C5FE02A890
:103E900008F0FCFA48BB504601F0E4FFFFF73EFF94
:103EA000002F38D0D8F800301B6E8BBB06F01EF800
:103EB0003846FEF7DFFD04ACD8F8003044F80C0DAE
:103EC0001F660068FFF7B0F82046FEF7A5FE05F074
:103ED000CFFA05F007FA02F0ABFA484601F0FAFF14
:103EE00002F0A6FA04B0BDE8F0872A462146304623
:103EF00000F086FD08F05EF90028CCD02A46214665
:103F0000304600F07DFD08F055F90028EDD1C2E7FC
:103F100001F09AFFCAE701F097FFDCE701F0FFFF2D
:103F2000780200202DE9F04385B006469046994678
:103F30000F46FFF7F3FE1B4A1B4B1268507C53F8E9
:103F4000204001E0246814B3E3681A68042AF9D118
:103F5000DB6A0121204698470546F0B12469A36831
:103F60009847124B0195013006BF1C4601250025DC
:103F700002944B46424639463046009500F0C6FB57
:103F8000044602F055FA204605B0BDE8F083FFF77D
:103F900011F9044618B1C368DAE70446F1E7204690
:103FA000F2E700BF78020020E80E0220F40B0A08B6
:103FB0002DE9F04385B00646904699460F46FFF737
:103FC000ADFE1C4A1C4B1268507C53F8204001E0A7
:103FD0002468FCB1E3681A68042AF9D1DB6A01217C
:103FE000204698470546D8B12469A3689847013010
:103FF00018D00C9B0294009301954B4642463946DB
:10400000304600F083FB044602F012FA204605B069
:10401000BDE8F083FFF7CEF8044648B1C368DDE79A
:104020000446F1E70C9B054C43F001030C93E0E7D9
:104030002046ECE778020020E80E0220F40B0A0884
:104040002DE9F04184B00C9C9CB1984617460E4671
:104050000546FFF763FE0B9B01930A9B02940093B6
:104060003A4643463146284600F050FB044602F0EB
:10407000DFF9204604B0BDE8F08100BF00B9704709
:1040800010B582B00446FFF749FE104B1B681B6E4B
:104090009C4217D02046FEF7EDFC4369019063B9BE
:1040A0000068FEF7BFFF01A8FEF7B6FD2046FEF749
:1040B00099FA02F0BDF902B010BD184602F09EF95F
:1040C0000198EDE701F0C0FEE4E700BF78020020B0
:1040D0002DE9F04F87B0064692461C468946FFF709
:1040E0001DFE564B1A68564B577CDB57012B384642
:1040F00040F3978004F0AAFD0546384604F0ECFD35
:104100000746002E00F08A8005A904A8FFF740FDAD
:10411000049A059BB6F900C0B6F90200B6F904E0AE
:10412000B6F9061015441F44013D2CEAEC73013F1B
:1041300020EAE072029303927545D4BFC3EB0503F6
:10414000C3EB0E038F42D4BFC2EB0702C2EB0102E6
:104150001D4617460135013704B97C42002D4FDD5D
:10416000002F4DDD109B00932A46234603990298A9
:10417000FFF71EFF8046002848D000F0DDF8874298
:10418000064604D02D4B1B68986C002851D1404640
:1041900000F0E0F9DFF8ACB03D4600240EE0AD1BC6
:1041A000ACB95046C847DBF800303444FF2003B1B7
:1041B00098474046FFF72EFEA74212DDAE42EEDDE5
:1041C0002946404600F0A6F9AD1B002CE9D0039B20
:1041D000029940461A1900F0F3F94046FFF7EEFD48
:1041E000DFE74046FFF74AFF002000F0B3F9B7428F
:1041F00006D0124B1B68986C10B1332108F0E6FE14
:1042000002F016F9002007B0BDE8F08F5046C8470D
:1042100002F00EF9012007B0BDE8F08F0396029678
:104220009AE704F0BDFC0546384604F0E3FC074677
:1042300067E7322108F0CAFEA9E700BF7802002034
:10424000E40E0220300D022030B5044683B098B150
:10425000FFF764FD2046FEF70DFC036802AD1B6905
:1042600045F8040D9B68984705F022FA0446284655
:10427000FEF7D2FC02F0DCF8204603B030BD00BFF0
:10428000A0B110B5044682B0FFF748FD2046FEF706
:10429000F1FB02AB00F1180443F8040D1846FEF7D9
:1042A000BBFC02F0C5F8204602B010BD704700BF4D
:1042B00010B5044682B0FFF731FD7CB12046FEF711
:1042C000D9FB02ABB0F9044043F8040D1846FEF7E1
:1042D000A3FC02F0ADF8204602B010BD044B1B68F1
:1042E0001C6E002CEAD102F0A3F8204602B010BDEB
:1042F0007802002010B5044682B0FFF70FFD7CB1B4
:104300002046FEF7B7FB02ABB0F9064043F8040DB8
:104310001846FEF781FC02F08BF8204602B010BD73
:10432000044B1B681C6E002CEAD102F081F8204679
:1043300002B010BD7802002010B5044682B0FFF72D
:10434000EDFC7CB12046FEF795FB02ABB0F90A40CC
:1043500043F8040D1846FEF75FFC02F069F82046AA
:1043600002B010BD044B1B681C6E002CEAD102F099
:104370005FF8204602B010BD780200202DE9F04F12
:10438000DFF888B189B0064605273046FEF772FB94
:10439000034607A8B3F90080B3F90440B3F90290CB
:1043A000B3F906500793C8EB04040134D3F824A0F2
:1043B000C9EB0505FEF730FC002C05F1010555DDC4
:1043C000002D53DDBAF1000F55D106F09DF886425D
:1043D0007FD04A4B01934FF0010A494640462B4695
:1043E0002246CDF808B0CDF800A000F08FF9804645
:1043F0003046FEF73FFB0790C0F82480B8F1000F6D
:1044000060D0836ADFF8089143F48033836207A8A1
:10441000FEF702FC404600F09DF80590504602F081
:104420005FF84046FFF72CFF354A364B1978136882
:1044300005FB04F29200344C984730462568C9F8D1
:10444000006006F033F92060304608F08FFC00224F
:1044500010462560C9F8002002F042F8059800F0E7
:1044600079F83046FEF7F2FB406AF0B9013F8CD193
:1044700009B0BDE8F08F5046FEF7FCFA034608A8E5
:10448000B3F9045040F8083DB3F90640FEF7C4FB09
:10449000A8450FD04A464146504600F091F83046B4
:1044A000FEF7D4FB406A0028E0D000F0C5F809B060
:1044B000BDE8F08FA145D4D04A464146504600F0B1
:1044C0007FF8ECE707A8FEF7A7FB304608F04EFCA4
:1044D000CCE704F09FFB824604F0E2FB544503DC8A
:1044E00085427FF776AFA2468542A8BF05462A4699
:1044F0005146304607F000FC54466AE72C230A0870
:1045000028030020340D0220040E0220F40B0A08B8
:10451000982F022030B50D4683B028B90C4B1B688C
:104520001C6E14B903B030BD0446FFF7F7FB2046FC
:10453000FEF7A0FAB0F90A300190AB42C8BF45813E
:1045400001A8FEF769FB01F073FF03B030BD00BFA7
:1045500078020020F0B5164F83B00446FFF7DEFB6B
:104560003B681E6EE4B1C6B905F0C0FC2046FEF7FC
:1045700081FA02AD3B6845F8040D1C660068FEF741
:1045800053FD2846FEF748FB04F072FF04F0AAFE34
:1045900001F04EFF304603B0F0BD01F055FCE3E7FB
:1045A00001F052FC01F044FF304603B0F0BD00BF03
:1045B00078020020014B1860704700BF440C0220B5
:1045C00070B50D4682B0164628B91A4B1B681C6E92
:1045D00014B902B070BD0446FFF7A0FB2046FEF7F9
:1045E00049FA36B22DB2C6808580009004F07AFE7A
:1045F000009B586930B96846FEF70EFB01F018FFC2
:1046000002B070BDFEF736FA009A0190B2F9083098
:10461000B2F90A20C280838013B10AB105804680B6
:1046200001A8FEF7F9FA6846FEF7F6FA01F000FF76
:10463000E6E700BF7802002000B9704770B5044675
:1046400084B0FFF76BFB2046FEF714FA014601A881
:10465000B1F90460B1F906500A894B8901913244DD
:104660002B44013A013BADF80860ADF80C20ADF8E1
:104670000E30ADF80A50FEF7CFFA02A807F006FF99
:1046800040B12A463146204600F09CF907F092FDE1
:104690000028F6D101F0CCFE04B070BD00B970471F
:1046A00070B5044684B00D461646FFF737FB20462A
:1046B000FEF7E0F9144B028901909D42438904BF43
:1046C000B0F90450B0F90660ADF80850013A013B6A
:1046D0002A44334401A8ADF80A60ADF80C20ADF8C7
:1046E0000E30FEF799FA02A807F0D0FE40B132462C
:1046F0002946204600F066F907F05CFD0028F6D157
:1047000001F096FE04B070BD01F0FFFF2DE9F04FFF
:10471000DFF82C8187B0D8F8004081468A461746DA
:104720001E461299637C11980022FEF7BBFB0028FD
:104730004DD003699B680546984704F0B9FF00FB1C
:1047400007F48346FEF7A8F9109B073413F0010322
:104750004FEAD4043FD0002E2CDD002B42D004FBC6
:1047600006F01830FDF7E6FE034668B30022029219
:1047700018460393FEF77EF9024606A8029BA2F8AC
:10478000049040F8042DA2F806A017815681D46049
:10479000C2F810B053611560FEF73EFA129B2B6110
:1047A000D8F80020039BAB60527CAA61184607B082
:1047B000BDE8F08F002C34D1204676428642A8BF57
:1047C000064693B3002ECADC2846FEF72BFC0020D9
:1047D00007B0BDE8F08F0028B8BF0330801000EBB1
:1047E0004000B8E700933A4633465146484601F048
:1047F00071FD029004FB06F01830FDF7A9FE034698
:104800000028B5D128460393FEF70CFC029B002B31
:10481000DDD01846FDF7E6FE039B184607B0BDE85D
:10482000F08F1838B0FBF4F0C7E700933A463346F0
:104830005146484601F04EFD002E0290DADCC3E7F7
:10484000780200202DE9F04F594C5A4BD4F800C0A3
:10485000DFF868919CF81150D9F8006053F82540B2
:104860008BB02369002E00F088801746DCF86020AA
:1048700080460D46002A00F08580E2681268072A0B
:1048800078D04D4A9A1AB2FA82F25209002A71D0AF
:104890004046FEF7EFF803460AA8B3F908B040F81F
:1048A000083DB3F90AA0DB680593FEF7B5F9404B64
:1048B00018680BEB0504B0F90C30013CE41AB0F9B0
:1048C0000830002CCCBFC4EB0B045C469D42BDBF3E
:1048D000591B641A1D460021002C50DD0AEB07030A
:1048E000B0F90EE0B0F90A000791013BCEEB0303EB
:1048F000002BC8BFC3EB0A0AB842C5BFC31BC3EB3A
:104900000A0A00230746BAF1000F069337DD404636
:10491000FFF7B6FC264B07991A68069BD2F860C0D1
:1049200003FB0B1100EB8106BCF1000F30D0604699
:10493000FEF7A0F8B0F90430D0F80C800AAAED1AFE
:10494000B0F9063042F8040DAD001835FF1A08FB27
:10495000075707441046FEF75FF987B1059B01939F
:10496000CDF80080D9F800505346224631463846EB
:10497000A84704E03A46294640460FF0F5F90BB047
:10498000BDE8F08FE2681268B2FA82F252097DE760
:10499000507CDFF82CE0CDF804A04FEA8B020292A5
:1049A000009433463A462946DEF80040A047E6E741
:1049B00078020020E80E0220F40B0A08F40E022010
:1049C000F00E02202DE9F04182B00F4690460646D7
:1049D000FEF750F8036802ACDB6844F8040D1621BA
:1049E0005B6A0020984705462046FEF715F91DB181
:1049F000424639463046A84702B0BDE8F08100BFC4
:104A00002DE9F04FA1B00D9110B921B0BDE8F08FA4
:104A100092460746FEF72EF820AB446943F81C0D7A
:104A20001846FEF7F9F83846FFF70EFC0828054649
:104A300002DD002C00F0D98001234FF0000B384636
:104A40001F930A93CDF878B0FEF714F80168DFF8E9
:104A5000688409690446D8F80000E3684D68B4F931
:104A600008100F9320AE23691491407CB4F90A100A
:104A7000099346F8144DD4F814901691FFF704F8F2
:104A8000D8F800100890487CFFF7B2F8044630468A
:104A9000FEF7C2F8099A0A9B082A40F2A080102A61
:104AA00013468CBF04230223CDF828B00E93A542F1
:104AB00000F0AC81D8F80030587CFFF791F8149BD7
:104AC00006469800FDF736FD129000289DD0384626
:104AD000FFF7D6FB0746B9F1000F00F0F580484616
:104AE000FDF7C8FF169B1C90002B40F38B81002321
:104AF0000C930F9BCDF840A0FB1815931DAB1193A1
:104B00004FF001081946836800221D925B690C9AD8
:104B10009847159B0F9A9B1A0B93149B834204464C
:104B200000F03181099B012B00F0F280002845D074
:104B30001AAB13931298FDF79DFF099B1A90082B4F
:104B400007461D9A40F2D4800E9B0B99A34602FBA8
:104B5000031A81463AF8020BA847B047BBF1010B94
:104B600049F8040BF6D1089B1F2B04D838461A4687
:104B7000214601F0CBFC0A9A059200220392089A82
:104B80001D9802920D9A1A9B1099049310440123C8
:104B90002246CDF80480CDF8008003F0B1FC1398D4
:104BA000FEF73AF81C981D9B8268119957690C9A78
:104BB0001C441D94B84704460028BBD1159A0F9990
:104BC0000C9B0A441592109A01321092169A0133E6
:104BD0009A420C9300F016811C98119993E7012AD0
:104BE0006ED11EAB0E920A9361E73846FDF742FF85
:104BF00020ABB0F9088043F8100D02460168B0F907
:104C00000A00089018460E69D2F80CB009920E936B
:104C1000FEF702F8A848A94900687368407C0C9325
:104C200051F820100C6923680A93FEF72DFF08281D
:104C3000099A40D910288CBF2023102309938CBFD8
:104C40004FF004094FF00209A64200F02D82202DFA
:104C500000F09E81102D7FF4D8AE08FB09F0FDF71F
:104C600069FC109000283FF4D0AEFDF703FF1E90C2
:104C70003846FDF7FFFE1C90236900F118020B92E5
:104C8000002B00F022827369002B00F01E82B0F925
:104C900008008000FDF74EFC0F90002840F069826C
:104CA0001D900E98FDF7B8FF1EA8FDF7B5FF1098F0
:104CB000FDF798FCA9E6082309934FF00109C3E723
:104CC0000E93CDF828B0F2E60A9B05930F9B039351
:104CD0000124099B04900293149A169B0D98019449
:104CE0005146009403F00CFC1298FDF77BFC8CE617
:104CF0000E9B0B99A14602FB031B82461BF8010B7E
:104D0000A847B047B9F101094AF8040BF6D12AE7E0
:104D100000283FF453AF17960C9F0A9EDDF8409091
:104D2000DDF834A0DDF844B01395DDF874E00B9D98
:104D300005960EF0070006900AEB0E00BEF1000F7C
:104D4000B8BF0EF1070E05EBEE0E0F9DCDF810E08B
:104D50002246012349460395CDF80880CDF804800A
:104D6000CDF8008004F096FB1C981D9B82681C44C3
:104D7000594653691D943A46984704460028D4D1B1
:104D8000139D179E1AE71298FDF774FE099B1A905F
:104D9000082B8146149FDDF82CA0044629D93AF847
:104DA000020BA847B047013F44F8040BF7D1089B1A
:104DB0001F2B04D848461A46149901F0A7FB0A9AFB
:104DC000059220AB1A460D9852F8183D04931446EC
:104DD00000220392089A0292CDF80480CDF8008058
:104DE0000123149A109903F08BFB2046FDF714FF62
:104DF000E4E61AF8010BA847B047013F44F8040B5A
:104E0000F7D1D4E71CA8FDF707FF6DE73846FFF799
:104E100037FA0746B9F1000F00F0A9804846FDF7C0
:104E200029FE169B1C90002B40F39D8000261DAB95
:104E3000CDF82CA0DDF834A0B14601259846836852
:104E4000CDF874905B69324641469847149B834283
:104E500004462DD0099B012B55D008B30B9B03EBC7
:104E6000060B0A9B1D9805930E9B0F9A039203FB5A
:104E70000073099A02920493224650440123594632
:104E80000195009503F03CFB1C981D9B82681C4417
:104E9000414653691D943246984704460028E0D1A4
:104EA0000F9B01361F44169BB3425CDD1C98C6E77E
:104EB0000897B3461F4604E078020020E80E02205F
:104EC000A3461C9883680BF101045B6922464146A6
:104ED00098478742F4D0099902910B990A9A089F42
:104EE0000592C6EB0B030F9A049731440F9E039271
:104EF000013301950095149A504606FB0377264628
:104F000003F0FEFACFE70028CAD00B9B089603EB0C
:104F1000060BDDF874E00A9805900EF00700069085
:104F20000AEB0E00BEF1000FB8BF0EF1070E07EB43
:104F3000EE0E0F9ECDF810E022460123594603964F
:104F400002950195009504F0A5FA1C981D9B8268B6
:104F50001C44414653691D94089A9847044600280A
:104F6000D7D1089E9CE71CA8FDF756FE4DE50A9B8D
:104F700005930F9B03930124099B04900293149AB9
:104F8000169B0D9801945146009403F0B9FA3CE544
:104F900009FB08F0FDF7CEFA0B9000283FF435AD81
:104FA000FDF768FD1E903846FDF764FD1C902569ED
:104FB00000F1180745B34FEA880B012619E0B9F153
:104FC000040F19D0B9F1010F16D000221E990998CB
:104FD0000290012305920392049101965146009696
:104FE00042460D989A4403F08BFA089B013B0893C4
:104FF00050D0B9F1020FE2D138461E9925694B46CF
:105000004246A8475F44E0E70C950126089C14E05F
:10501000B9F1040F00F08D81994500F035810C9DA8
:1050200005950395099D02951E9D01960096049590
:1050300003F066FA013C2DD0DA460123B9F1020FE4
:10504000514642460D980AEB030BE1D108944FEA12
:1050500088050124DDF87890BB4646465BF8040BD2
:105060000A9B9847013E29F8020BF7D11E9B099A2B
:1050700002920493514601230596039601940094ED
:1050800042460D989A4403F03BFA089B013B2F449B
:105090000893DFD10E98FDF7BFFD1EA8FDF7BCFDFC
:1050A0000B98FDF79FFAB0E4012418320026049211
:1050B000CDF80CB00295089B0D98059642465146D6
:1050C0000194009403F01CFA9FE400250126089C3B
:1050D00016E0B9F1040F00F0FC80994500F0A480BF
:1050E0001E9F0897099F0297089F059503950196B3
:1050F0000096049703F004FA013C3FF4D2ADDA467F
:105100000123B9F1020F514642460D980AEB030BF9
:10511000DFD14FEA48060C9D08940A9F0A960124A5
:105120001E9EDDF82CB0C1463BF8020BA847B847DD
:10513000B9F1010926F8020BF6D10B9E1E9A099BC4
:105140000293B6460A9E049201235146B644CDF816
:105150001490CDF80C900194009442460D98CDF82F
:105160002CE09A4403F0CCF9089B013B0893D7D17B
:1051700097E5FDF77FFC1D9000283FF492AD4FEAC4
:10518000480337460A9301250C940B9E19E0B9F1A8
:10519000040F30D0B9F1010F28D000221E990998D0
:1051A00002900123059203920491019551460095C6
:1051B00042460D989A4403F0A3F9089B013B0893DB
:1051C0002BD0B9F1020FE2D1DDF878B01D994B4632
:1051D000424630467C69A0470A9C1D9826440C9C98
:1051E00059464B4642462469A047D6E7DDF878B0D9
:1051F0001D990223ECE730461D997C69DDF878B0F3
:1052000002234246A0470C9C1D9824694B465946F0
:105210004246A0470A9B1E44BFE71DA8FDF7FCFCC1
:105220000F98FDF7DFF93CE508FA03F60C9D0894AA
:105230000A9F0A964C461E9EDDF82CB0C1463BF8EC
:10524000020BA847B847B9F1010906F8010BF6D1DE
:105250000B9E1E9A099B0293B6460A9E0492012356
:105260005146B644CDF81490CDF80C9001940094BA
:1052700042460D98CDF82CE09A4403F041F9089B82
:10528000013B0893D7D10CE508944FEA88054C46BA
:10529000DDF87890BB4646465BF8040B0A9B9847BE
:1052A000013E09F8010BF7D11E9B099A0292049363
:1052B00051460123059603960194009442460D98A9
:1052C0009A4403F01DF9089B013B2F440893DFD15A
:1052D000E0E64FEA48060C9D08940A9F0A960124CE
:1052E0001E9EDDF82CB0C1463BF8020BA847B8471C
:1052F000B9F1010946F8040BF6D10B9E1E9A099BE1
:105300000293B6460A9E049201235146B644CDF854
:105310001490CDF80C900194009442460D98CDF86D
:105320002CE09A4403F0ECF8089B013B0893D7D19A
:10533000B7E408944FEA88050124DDF87890BB466D
:1053400046465BF8040B0A9B9847013E49F8040B5C
:10535000F7D11E9B099A02920493514601230596A8
:1053600003960194009442460D989A4403F0C8F8BD
:10537000089B013B2F440893DFD18BE6184B194A59
:10538000196A70B500290CBF0646002682B09157F5
:10539000012923DD03EB86021469651C1561ECB954
:1053A000956853F8263026462C4600E01C4601340A
:1053B0008C420ABF002494609660A342F6D0FDF7A9
:1053C000F9FE019050B1C36821215B6A01A898479A
:1053D000034618B1224629460198984702B070BD8D
:1053E000840B0220E40E022030B50C4D6B6A83B0B2
:1053F000044653B12A6A0A4B002A18BF0024012927
:10540000B8BF0121195503B030BD2846054B40F8FF
:10541000243F019102F0AEFB0199EBE7840B0220DF
:10542000E40E0220E5270108094B1A6A002A18BF7A
:10543000002003EB800210B49469002C04DB43F8D5
:1054400020104FF0FF3393615DF8044B704700BFAD
:10545000840B0220164B174A196A30B500290CBF7D
:105460000446002483B01257012A05DD03EB8404AF
:105470002369013B23610BB103B030BD0546012018
:10548000A840FDF7FDFC2846A568A561FDF792FE42
:1054900001900028F0D0C36822215B6A01A89847D8
:1054A00003460028E8D029460198984703B030BD4C
:1054B000840B0220E40E022020B321B322B3B2F900
:1054C00000C0B1F90630F0B5B1F90050B2F902E010
:1054D000B1F90240B2F90470B2F90660B1F90420E2
:1054E0006545A8BF6546A6457146A8BF2146BA4294
:1054F000B8BF3A46B342B8BF334605804180828088
:10550000C380F0BD704711460B684A684260036073
:10551000704700BF78B170B4068844888588C38816
:1055200089B292B20E44144429440680448070BC6F
:105530001A448180C280704770B4104D2B686A682D
:10554000934204460FD093E807000D4E84E807000D
:10555000B34214BF0C333C3B2B60207A003018BFA1
:10556000012070BC7047074A934206BF3C3393E862
:10557000070013E9070084E80700EEE78002002037
:10558000EC0B0220B00B0220034B09CBC01AB0FA7F
:1055900080F04009704700BF80020020F0B5374E10
:1055A000336D85B00446002B55D094E80700344C89
:1055B000344DF36C256001AD85E807000BB128463A
:1055C0009847314FD7F800E07B689E4538D0B3420A
:1055D0002A4C9DF80C2035D013F8041C914212D0AF
:1055E0003C3495E80700A34283E807001BD00C3346
:1055F0009E457B601BD0B36C0BB12846984700F0EA
:10560000F7FC05B0F0BDA3F10C018E45E8D0A14236
:105610002ED03C340C39097A9142E2D1B34214BF06
:105620000C3B2346DDE7154B7B609E45E3D1174BD2
:105630009E4514BF0EF10C03AEF13C033B60DAE76C
:10564000124CCEE796F8441091420BD095E8070033
:1056500086E80700CBE730460D4B40F8503F02F09C
:1056600089FAA2E706F13C04A645EFD02146D1E72E
:1056700001F13C0403F13001CDE700BFB00B022083
:10568000A42F022069A7000880020020EC0B022052
:105690002D28010810B5FEF741FB0D4A136851682B
:1056A0008B420FD00B4CA34293E803004FF0010450
:1056B00014BF0833503B136006F01CF800F0B8FE2E
:1056C000204610BD002400F0B3FE204610BD00BFF0
:1056D00014030020DC0C0220F0B5164C059E256852
:1056E000069CB5F908E0B5F90C707045B8BF704676
:1056F000BA42A8BF3A4690421ADCB5F90A70B5F929
:105700000E50B942B8BF3946AB42A8BF2B468B42B8
:1057100003DAF0BD25682DB12C46E5682D6835F01B
:105720000405F7D106940596BDE8F04003F092BC5D
:10573000F0BD00BF78020020B0F90220B1F90630B8
:105740009A4214DCB1F90220B0F906309A420EDC1C
:10575000B0F90020B1F904309A4208DCB0F9040035
:10576000B1F900308342CCBF0020012070470020F7
:10577000704700BF08B5034B014674221868FAF75A
:10578000BEFD08BD7802002000B970472DE9F04F3A
:10579000ABB004460D4616461D921C91FEF7BEFAAC
:1057A0002046FDF767F9B0F90430046827909D4260
:1057B000129400F083810020FEF7CCFE9F4B129ADA
:1057C0001B689269597C20900846279D219182424E
:1057D00018BF5A74B5F9043007931846B5F9081084
:1057E000B5F906301992B5F90A2013931C46091A27
:1057F000121B0E460B911A92214614463246013274
:105800002B8A1B92224601329B071E9240F1378160
:105810001C9B6A6903921B1A1D9A1493002BA2EB1E
:10582000010440F3BD810993DDF86C9000234FF033
:10583000010A1193002C40F3BE811E9B1693012395
:10584000179415934FF0000B129E7D4BB0691B56B9
:10585000012B40F39F810023ADF8A230ADF8A030BA
:1058600003F0F4F9431EB069ADF8A43003F034FA44
:105870000138ADF8A6002798524600F1140108F04F
:105880007FFA2290002800F0F9802798524600F114
:10589000140108F075FA2490002800F0EA80279B94
:1058A000D868002840F09781169A5A4500F0DD80AC
:1058B0001B9B119923909A000BFB031305EB8303A9
:1058C0000E93C4EB0B030C93139B1599234418936D
:1058D0004FEA8A0301FB02F204935B461F92D34610
:1058E000C8469A46179B534500F309811A9B5345B6
:1058F000B4BF002301231093139B119C53440F93B7
:10590000189BA0455344089300F0A0801498079B6F
:105910000E9D0344C0EB04090A935FE00B9BA34276
:105920006CDB109B002B69D0BDF9A020BA4240F37C
:10593000778200230593B9F1000FC0F2CC800C9B55
:10594000002BC0F2C8801A4649460398FEF748F873
:10595000030E40F0C080BDF9A030069A9A420FDBDA
:10596000BDF9A2200F998A420ADCBDF9A42006994C
:105970008A4205DBBDF9A6200F998A4280F2A480F5
:105980009F4223DBBDF9A230089883421EDCBDF99B
:10599000A430BB421ADBBDF9A630834216DB304689
:1059A000284B239E1B6846F07F41FF229847199A97
:1059B000254B53F822301B691B689847229B0093A4
:1059C0000246129B089938460DF07AFE059B2B6221
:1059D0005C44049BA0451D44D94437D0524621461F
:1059E0000398FDF7FDFF030E0646F1D0079BE31871
:1059F00006930A9B1F19099BA3428FDDBDF9A030B6
:105A0000BB421A466ADCBDF9A23008998B424FF0BE
:105A1000000371DC0D93BDF9A430BB4204DBBDF97A
:105A2000A630089A93426DDA002305930D9B002B54
:105A300081D1BDF9A02013468FE700BF7802002076
:105A4000E40E02208C020020E80E02200E9B1F991B
:105A5000159A0B440E930C9B1946169B92441144C5
:105A600053450C917FF43EAF279B186824990DF0A5
:105A700089FA279B229918680DF084FA279D1C9BB0
:105A80001B9A1D99AB801E98E9801344013B4A1E66
:105A900002442B81199B6A81219A1946914202D0B6
:105AA000A64B1B685A742098FEF754FD27A8FDF7F3
:105AB000B3F800F0BDFC2BB0BDE8F08FB0F90630B4
:105AC0009E427FF478AEF1E7249B2A6A0698009301
:105AD000129B0DF0F5FDBDF9A03051E7069A9342F7
